:100000000C9462000C947F000C947F000C947F0091
:100010000C947F000C947F000C94CE120C944B0730
:100020000C947F000C947F000C947F000C947F0054
:100030000C947F000C947F000C947F000C947F0044
:100040000C94A7070C947F000C947F000C947F0005
:100050000C947F000C947F000C947F000C947F0024
:100060000C947F000C947F00000000002400270007
:100070002A000000000023002600290000000008DC
:10008000000201000003040700000000000000005F
:10009000010204081020408001020408102001021F
:1000A0000408102000000000250028002B00040494
:1000B0000404040404040202020202020303030310
:1000C0000303020011241FBECFEFD8E0DEBFCDBF77
:1000D00013E0A0E0B1E0ECE7FBE202C005900D9276
:1000E000AA32B107D9F723E0AAE2B3E001C01D921A
:1000F000AF3DB207E1F70E94D1120C94BC150C94ED
:100100000000833081F028F4813099F08230A9F02A
:1001100008958730A9F08830C9F08430B1F4809117
:1001200080008F7D03C0809180008F778093800056
:10013000089584B58F7784BD089584B58F7DFBCFF6
:100140008091B0008F778093B00008958091B000C7
:100150008F7DF9CFCF93DF93282F30E0F901E4585A
:10016000FF4F8491F901E057FF4FD491F901E25517
:10017000FF4FC491CC23A1F081110E948100EC2F8C
:10018000F0E0EE0FFF1FEE58FF4FA591B491EC91F8
:10019000ED2381E090E009F480E0DF91CF910895B4
:1001A00080E090E0FACF1F93CF93DF93282F30E0C9
:1001B000F901E458FF4F8491F901E057FF4FD491C2
:1001C000F901E255FF4FC491CC23A9F0162F8111FC
:1001D0000E948100EC2FF0E0EE0FFF1FEC55FF4F67
:1001E000A591B4918FB7F894EC91111108C0D095F6
:1001F000DE23DC938FBFDF91CF911F910895DE2B1B
:10020000F8CF9091000189130BC0E2ECF0E0E4918B
:100210009FEF90930001E13049F028F0E23061F067
:1002200060E00C94D30010926E00FACF90916F00B2
:100230009D7F90936F00F4CF909170009D7F90937D
:10024000700091E09093B0009091B100987F94601D
:100250009093B1001092B300E3CFCF93DF9390E07F
:10026000FC01E057FF4F249182559F4FFC01849180
:100270008823D1F090E0880F991FFC01E859FF4FC7
:10028000A591B491FC01EC55FF4FC591D49161113A
:100290000EC09FB7F8948C91E22FE0958E238C933B
:1002A0002881E223E8839FBFDF91CF9108958FB724
:1002B000F894EC91E22BEC938FBFF6CF4F925F92C4
:1002C0006F927F928F929F92AF92BF92CF92DF9266
:1002D000EF92FF920F931F93CF93DF9300D000D044
:1002E0001F92CDB7DEB78C012A013B01809100013E
:1002F0008B30C9F08F3F09F47FC00F900F900F90A3
:100300000F900F90DF91CF911F910F91FF90EF9081
:10031000DF90CF90BF90AF909F908F907F906F9025
:100320005F904F900895E2ECF0E084918D8387FD1B
:10033000E4CF61E08BE00E942D018D81882321F0C4
:100340009D81923009F05CC14801B12CA12C60E084
:1003500072E18AE790E0A50198010E946D1529835A
:100360003A834B835C8369017A0181E0C81AD10822
:10037000E108F1089FEFC916D104E104F10409F086
:100380000CF413C160E472E48FE090E0A5019801E1
:100390000E946D1569017A0181E0C81AD108E1084F
:1003A000F1089D81923009F098C08FEFC816D104F2
:1003B000E104F10409F00CF4DDC160E970ED83E0C3
:1003C00090E0A50198010E946D1569017A0191E004
:1003D000C91AD108E108F1088FEFC816D104E10469
:1003E000F10411F00CF0A3C183E09091B100987F6B
:1003F000892B8093B100E1C08BE080930001E2EC97
:10040000F0E094919D839F3F09F477CF913029F1DB
:1004100058F0923009F43FC08D8187FD6ECF61E0C6
:100420008BE00E942D018CCF14BC15BC84B582607A
:1004300084BD85B5816085BDE9EBF0E0E491F0E035
:10044000EE0FFF1FEC55FF4F85919491EBE9F0E023
:10045000E491E093A6031D826CCF1092800010926D
:10046000810080918100886080938100809181006B
:10047000816080938100E9EBF0E0E491F0E0EE0F21
:10048000FF1FEC55FF4F85919491EBE9F0E0E4916B
:10049000E093A5034ECF1092B0001092B10080916E
:1004A000B00082608093B0008091B1008160809341
:1004B000B100E9EBF0E0E491F0E0EE0FFF1FEC5546
:1004C000FF4F859194919093A4038093A303EBE94C
:1004D000F0E0E491E093A2032CCF9FEFC916D10482
:1004E000E104F10409F00CF489C068E478EE81E0DD
:1004F00090E0A50198010E946D1569017A0181E0E3
:10050000C81AD108E108F1089D81992309F428C18E
:100510009FEFC916D104E104F10409F00CF41EC1E7
:1005200062E17AE780E090E0A50194010E946D15F8
:1005300069017A0181E0C81AD108E108F1089D81BA
:10054000992309F4EBC08FEFC816D104E104F1043C
:1005500011F008F0BFC086E048CF64E274EF80E09D
:1005600090E0A50194010E946D1569017A0181E076
:10057000C81AD108E108F10885E09FEFC916D10437
:10058000E104F10409F008F430CF62E17AE780E099
:1005900090E0A50194010E946D1569017A0191E036
:1005A000C91AD108E108F108CECF81E09D819111EF
:1005B0001CCF95B5987F892B85BD2FEF3FEFA90103
:1005C000411451046104710409F043C09D819130CC
:1005D00009F45EC0923009F46DC091118ECEC7BC93
:1005E0002093AF033093B0034093B1035093B20311
:1005F00080916E00826080936E007FCE82E0D6CFC5
:10060000B12CA12C60E072E18AE790E0A50198018D
:100610000E946D1569017A0181E0C81AD108E108CC
:10062000F108C114D10491E0E906F10404F591E068
:100630008D81813011F680918100887F892B809394
:1006400081002FEF3FEFA9014114510461047104AF
:10065000F9F0D801AA0FBB1FA30192010E949215C5
:1006600028EE33E040E050E00E944B15AFCF68E445
:1006700078EE81E090E0A50198010E946D15690176
:100680007A0181E0C81AD108E108F10893E0D0CFDF
:10069000D0928900C09288002093AB033093AC03C2
:1006A0004093AD035093AE0380916F0082608093BE
:1006B0006F0023CEC092B3002093A7033093A8030A
:1006C0004093A9035093AA038091700082608093A5
:1006D000700013CEC980DA80EB80FC809AE0F5943C
:1006E000E794D794C7949A95D1F791E0C91AD108A5
:1006F000E108F10887E079CEC980DA80EB80FC80E0
:100700008AE0F594E794D794C7948A95D1F791E05D
:10071000C91AD108E108F10885E04BCF8FEFC81660
:10072000D104E104F10409F038F784E042CF68E431
:1007300078EE81E090E0A50198010E946D156901B5
:100740007A0191E0C91AD108E108F1088FEFC816C3
:10075000D104E104F10411F00CF0FFCE84E045CEA9
:100760008FEFC816D104E104F10411F00CF0D8CEDB
:1007700083E01FCF82E039CE3FB7F89480916703C2
:1007800090916803A0916903B0916A0326B5A89B74
:1007900005C02F3F19F00196A11DB11D3FBFBA2F13
:1007A000A92F982F8827BC01CD01620F711D811DD3
:1007B000911D42E0660F771F881F991F4A95D1F758
:1007C00008958F929F92AF92BF92CF92DF92EF9255
:1007D000FF926B017C010E94BC034B015C01C114C0
:1007E000D104E104F104B9F00E94BC03681979094D
:1007F0008A099B09683E73408105910580F321E0D9
:10080000C21AD108E108F10888EE880E83E0981E2C
:10081000A11CB11CE4CFFF90EF90DF90CF90BF9070
:10082000AF909F908F900895E0917003F0917103C5
:100830008081811107C08FEF9FEF90935B038093BE
:100840005A030895E0917003F09171030580F681D9
:10085000E02D0680F781E02D82819381EECFCF934A
:10086000DF9300D0CDB7DEB736E2432E5524539444
:1008700042E0642E712C01E010E053E0E52EF12CF3
:100880006DEEC62EDD24D39478EBA72EBB24B39453
:100890008AE00E94AA00892BD1F480913C039091B8
:1008A0003D03892BA1F486E091E09A8389834FEF81
:1008B0005FEFBE016F5F7F4F80913E0390913F03DA
:1008C0000E94E10B10933D0300933C03E1CF89E0CC
:1008D0000E94AA00892BC1F480913A0390913B03B6
:1008E000892B91F45A8249824FEF5FEFBE016F5F0F
:1008F0007F4F80913E0390913F030E94E10B109344
:100900003B0300933A03E3CF2AE4822E9924939485
:1009100088E00E94AA00892BC1F48091380390914D
:100920003903892B91F49A8289824FEF5FEFBE01E0
:100930006F5F7F4F80913E0390913F030E94E10BD8
:100940001093390300933803E3CF92E7892E99245B
:10095000939487E00E94AA00892BC1F4809136030A
:1009600090913703892B91F49A8289824FEF5FEF40
:10097000BE016F5F7F4F80913E0390913F030E94C5
:10098000E10B1093370300933603E3CF88E8882EFA
:100990009924939486E00E94AA00892BC1F4809147
:1009A000340390913503892B91F49A8289824FEF19
:1009B0005FEFBE016F5F7F4F80913E0390913F03D9
:1009C0000E94E10B1093350300933403E3CF85E0DD
:1009D0000E94AA00892BC1F48091320390913303C5
:1009E000892B91F4BA82A9824FEF5FEFBE016F5F4E
:1009F0007F4F80913E0390913F030E94E10B109343
:100A0000330300933203E3CF84E00E94AA00892BD2
:100A1000C1F48091300390913103892B91F4DA82F3
:100A2000C9824FEF5FEFBE016F5F7F4F80913E0342
:100A300090913F030E94E10B109331030093300328
:100A4000E3CF83E00E94AA00892BC1F480912E039A
:100A500090912F03892B91F4FA82E9824FEF5FEF97
:100A6000BE016F5F7F4F80913E0390913F030E94D4
:100A7000E10B10932F0300932E03E3CF82E00E943B
:100A8000AA00892BC1F480912C0390912D03892B0E
:100A900091F47A8269824FEF5FEFBE016F5F7F4F03
:100AA00080913E0390913F030E94E10B10932D0330
:100AB00000932C03E3CF8AE00E94AA00892B59F40B
:100AC00080913C0390913D03019729F461E08DE012
:100AD0000E94D300F0CF89E00E94AA00892B59F42C
:100AE00080913A0390913B03019729F461E08DE0F6
:100AF0000E94D300F0CF88E00E94AA00892B59F40D
:100B00008091380390913903019729F461E08DE0D9
:100B10000E94D300F0CF88E00E94AA00892B59F4EC
:100B20008091360390913703019729F461E08DE0BD
:100B30000E94D300F0CF86E00E94AA00892B59F4CE
:100B40008091340390913503019729F461E08DE0A1
:100B50000E94D300F0CF85E00E94AA00892B59F4AF
:100B60008091320390913303019729F461E08DE085
:100B70000E94D300F0CF84E00E94AA00892B59F490
:100B80008091300390913103019729F461E08DE069
:100B90000E94D300F0CF83E00E94AA00892B31F499
:100BA00080912E0390912F030197A9F382E00E9478
:100BB000AA00892B31F480912C0390912D03019789
:100BC000A9F38BE00E94010160E08DE00E94D30058
:100BD00010923D0310923C0310923B0310923A0393
:100BE0001092390310923803109237031092360393
:100BF0001092350310923403109233031092320393
:100C0000109231031092300310922F0310922E0392
:100C100010922D0310922C033BCECF93DF9300D084
:100C2000CDB7DEB71A8219824FEF5FEFBE016F5F5B
:100C30007F4F80913E0390913F030E944F0D813082
:100C400089F789819A818330910599F51A821982F1
:100C500061E08DE00E94D30005E512E09DEFA92E32
:100C600091E0B92EF80121913191419151918F017B
:100C700060E070E086E194E40E9452140E94C41483
:100C80006B01770FEE08FF08B701A601F50181910E
:100C900091915F010E945E01C701B6010E94E103CC
:100CA000F2E0053A1F07F1F660E08DE00E94D30004
:100CB000B9CF8230910579F561E08DE00E94D300D3
:100CC0001A82198201E811E08BE1A82E81E0B82E8A
:100CD000F80121913191419151918F0160E070E0D3
:100CE00086E194E40E9452140E94C4146B01770FB1
:100CF000EE08FF08B701A601F501819191915F010E
:100D00000E945E01C701B6010E94E103F1E0093FC4
:100D10001F07F1F6C9CF40E050E0BA010E945E0122
:100D200081CF00E010E08091590381110CC08091C7
:100D3000B603823010F00E94FD090115110599F3E8
:100D40000E940000F0CF0FB6F8940F92E09180035C
:100D5000F0918103C681D781CE0102960E945F087F
:100D60008091A10381508093A10380915903815008
:100D7000809359030F900FBE8F89988D0E94CC0FDE
:100D8000CE010E94CC0FCFCF0F931F93CF93DF9351
:100D900061E08DE00E942D0161E08BE00E942D0159
:100DA00060E08AE00E942D0161E08AE00E94D300A9
:100DB00060E089E00E942D0161E089E00E94D3009B
:100DC00060E088E00E942D0161E088E00E94D3008D
:100DD00060E087E00E942D0161E087E00E94D3007F
:100DE00060E086E00E942D0161E086E00E94D30071
:100DF00060E085E00E942D0161E085E00E94D30063
:100E000060E084E00E942D0161E084E00E94D30054
:100E100060E083E00E942D0161E083E00E94D30046
:100E200060E082E00E942D0161E082E00E94D30038
:100E300060E08DE00E94D3008BE590E00E940211FB
:100E4000EC01009751F04F96998388838EE18B8F48
:100E500082E08C8FCE010E94CD09D0933F03C093D6
:100E60003E0310E000E020E040E850E062E173E083
:100E70008FE294E00E94201121E040E850E060E21F
:100E800073E08DE096E00E942011DF91CF911F91D9
:100E90000F910C942B121F920F920FB60F921124E8
:100EA0002F933F934F935F936F937F938F939F9372
:100EB000AF93BF93EF93FF938091A7039091A80303
:100EC000A091A903B091AA03892B8A2B8B2BD1F176
:100ED0009091A203E091A303F091A403808189275C
:100EE00080838091A7039091A803A091A903B0915A
:100EF000AA03181619061A061B069CF48091A7036C
:100F00009091A803A091A903B091AA030197A10908
:100F1000B1098093A7039093A803A093A903B0936A
:100F2000AA03FF91EF91BF91AF919F918F917F9114
:100F30006F915F914F913F912F910F900FBE0F9046
:100F40001F901895809100010E940101EACF1F9225
:100F50000F920FB60F9211242F933F938F939F936D
:100F6000AF93BF938091630390916403A091650355
:100F7000B09166033091620323E0230F2D3758F5BB
:100F80000196A11DB11D209362038093630390938A
:100F90006403A0936503B093660380916703909107
:100FA0006803A0916903B0916A030196A11DB11D68
:100FB0008093670390936803A0936903B0936A03D7
:100FC000BF91AF919F918F913F912F910F900FBE45
:100FD0000F901F90189526E8230F0296A11DB11DB2
:100FE000D2CFFC01DB010FB6F8940F924091B3030E
:100FF0005091B4032D913C9111972F3F3207E1F0AE
:10100000818192816091B5037081761719F048173C
:101010005907C0F4481B590B4217530788F4241B87
:10102000350B2D933C938091B50380838091B3035E
:101030009091B4039283818380E00F900FBE089556
:101040001D921C9281E0F9CF0FB6F8940F92809117
:10105000B3039091B4030F900FBE089580916B037A
:101060008F5F80936B0308950FB6F8940F92FC0185
:10107000928D0F900FBE81E0911180E00895CF9383
:10108000DF939C01FB01DC011196CD91DC91D383B0
:10109000C2838C819D81958384838C819D81DC01B9
:1010A00013967C936E9312977D836C833187208790
:1010B000F90180818F5F8083DF91CF910895CF9375
:1010C000DF93FC01A085B1858281938124813581E4
:1010D000EC013D832C83C481D5819B838A83119647
:1010E0008D919C9112978E179F0721F41296DC9395
:1010F000CE931197118610868C9181508C938C9190
:10110000DF91CF9108950F931F93CF93DF93DC016D
:101110001596ED91FC91C681D7818E01045F1F4F1A
:10112000C8010E945F0880916B03811125C00A509D
:101130001109C8010E945F088E899091DA039817FF
:1011400010F48093DA03B9E08B9FC0011124B80139
:101150008A549C4F0E943F08E0912A03F0912B0390
:101160009E898689891760F481E080935803DF9116
:10117000CF911F910F910895B80184E893E0EACFD1
:1011800080E0F5CFEF92FF920F931F93CF93DF9301
:10119000EC010FB6F8940F921E8D7C0181E1E80EF0
:1011A000F11C01E01116D4F08FEF8E8F0F900FBE5F
:1011B0000FB6F8940F921D8D7E0188E0E80EF11CA9
:1011C00001E01116B4F08FEF8D8F0F900FBEDF91FD
:1011D000CF911F910F91FF90EF90089589898823F7
:1011E00019F3C7010E94830881110093580311501D
:1011F000D9CF8885882339F3C7010E9483088111DC
:10120000009358031150DDCF0F931F93CF93DF93BB
:101210008C01FB0180819181D80113968F3F980743
:10122000F1F4E801AF81B88512968D919C911397E6
:1012300093838283EC01FD83EC83B583A4831396AF
:10124000FC93EE93129711870087F80180818F5FDE
:101250008083DF91CF911F910F910895D90112964C
:101260002D913C911397E901488159818417950785
:10127000A8F7DACFFC0173836283918780874617D2
:10128000570790F0421B530B8485958548175907E3
:10129000C8F4BF016E5F7F4F80915E0390915F0342
:1012A0000E94040980E008954217530718F462175A
:1012B000730740F4BF016E5F7F4F80916003909190
:1012C0006103EECF81E00895FF920F931F93CF93B8
:1012D000DF93EC01F62E0091B3031091B4038091DB
:1012E0002A0390912B0302960E945F08CF3FDC07F0
:1012F00089F4FF2079F060912A0370912B036E5FCF
:101300007F4F82E793E0DF91CF911F910F91FF9084
:101310000C943F08C00FD11FE0912A03F0912B03DA
:10132000D383C28360912A0370912B03C017D10726
:1013300068F480916E0390916F036E5F7F4FDF9131
:10134000CF911F910F91FF900C940409809170032D
:10135000909171036E5F7F4F0E94040980915A0340
:1013600090915B03C817D90720F4D0935B03C09317
:101370005A03DF91CF911F910F91FF900895FC01C7
:101380000396928381832FEF3FEF348323839683E9
:1013900085839087878310820895CF93DF93EC0134
:1013A0000FB6F8940F92888199812B8D4C8DBC01DA
:1013B000249F600D711D11247D836C831A8E9B8385
:1013C0008A832150330B429FB001439F700D11243B
:1013D000860F971F9F838E838FEF8D8F8E8FCE0109
:1013E00008960E94BF09CE0141960E94BF090F9046
:1013F0000FBE81E0DF91CF9108950F920FB6F89460
:101400000F921F9211242F923F924F925F926F92F0
:101410007F928F929F92AF92BF92CF92DF92EF9284
:10142000FF920F931F932F933F934F935F936F936D
:101430007F938F939F93AF93BF93CF93DF93EF935C
:10144000FF93A0912A03B0912B030DB60D920EB617
:101450000D9280916B03882321F081E080935803E3
:101460005FC010925803A0912A03B0912B03E09122
:101470002A03F0912B032D913C918789908D82173F
:101480009307A8F080912A0390912B0380912A035F
:1014900090912B03259A2D9A2FEF87EA91E6215000
:1014A00080409040E1F700C000001D9AF5CF2091E8
:1014B000DA0389E001C02150422F50E0849FF001FF
:1014C000859FF00D1124EA54FC4F9081992399F3E4
:1014D000A181B28112960D90BC91A02DB283A183FF
:1014E000289FC001112487549C4FA817B90729F4DD
:1014F00012968D919C919283818389E0849FF00163
:10150000859FF00D1124EA54FC4F0180F281E02DFB
:101510008681978190932B0380932A032093DA038B
:10152000A0912A03B0912B03CD91CDBFDD91DEBFF9
:10153000FF91EF91DF91CF91BF91AF919F918F91EB
:101540007F916F915F914F913F912F911F910F91DB
:10155000FF90EF90DF90CF90BF90AF909F908F90D3
:101560007F906F905F904F903F902F901F900F90C3
:101570000FBE0F9008957F928F929F92AF92BF926D
:10158000CF92DF92EF92FF920F931F93CF93DF934F
:101590000FB6F8940F9280916B03815080936B0388
:1015A00080916B03882389F080E00F900FBEDF915C
:1015B000CF911F910F91FF90EF90DF90CF90BF9050
:1015C000AF909F908F907F9008958091A103882382
:1015D00059F3D0E0C0E029E0F22EEE24E39429C0D4
:1015E000E0918903F0918A03C681D781CE010C96E0
:1015F0000E945F088E010E5F1F4FC8010E945F08A6
:101600008E899091DA03981710F48093DA038F9DF6
:10161000C0011124B8018A549C4F0E943F08E091F8
:101620002A03F0912B039E898689981710F0E09287
:101630005803809184038111D3CFCD2B11F00E94E8
:101640001404E0905603F0905703E114F10409F4F8
:10165000AFC089E0A82E77247394CC24CA94DC2CE4
:1016600080916B03811192C0C091B303D091B403F8
:101670002196D093B403C093B3032097B9F480911B
:1016800070039091710320916E0330916F0330933A
:1016900071032093700390936F0380936E03809186
:1016A000B5038F5F8093B5030E94140480915A03A1
:1016B00090915B03B12CC817D90708F05BC0E0918B
:1016C0002A03F0912B03E689AE9EF0011124EA541F
:1016D000FC4F8081823010F0BB24B394809158037A
:1016E000811103C0BB2009F45AC07092580357C03F
:1016F000E0917003F09171030580F681E02D068181
:101700001781D80112968D919C91C817D90728F49A
:1017100090935B0380935A03D2CF4801B2E08B0EC3
:10172000911CC4010E945F08F80184899589892B66
:1017300021F0C8010C960E945F08D80156968C9142
:101740009091DA03981710F48093DA038A9DC00110
:101750001124B4018A549C4F0E943F08E0912A034F
:10176000F0912B03D80156969C918689981710F01A
:10177000BB24B394E0917003F091710380818111D7
:10178000B7CFD0925B03C0925A0399CF8091560392
:101790009091570301969093570380935603B1E0BD
:1017A000EB1AF10809F05CCF109257031092560320
:1017B00080915803882309F4F7CE0E94FD0981E047
:1017C000F4CEAF92BF92CF92DF92EF92FF920F933F
:1017D0001F93CF93DF9300D000D01F92CDB7DEB719
:1017E0008C017B015D834C8380E0680128E0C20EA0
:1017F000D11C0FB6F8940F92F801228D938D291702
:1018000008F078C0D28C448D41115AC080819181FA
:10181000892B11F080E009C0E480F580E114F10427
:1018200021F580E0F80115821482D394F801D28E5C
:101830009189992321F0C80141960E948308811162
:101840000E94FD090F900FBE81E00F900F900F9046
:101850000F900F90DF91CF911F910F91FF90EF901C
:10186000DF90CF90BF90AF900895F70182A1815093
:1018700082A3268991A12917A1F28111D2CF570104
:10188000F2E0AF0EB11CC5010E945F08F70181A113
:10189000868B24E030E0281B31093587248790911E
:1018A000DA03981710F48093DA03F9E08F9FC001F0
:1018B0001124B5018A549C4F0E943F0881E0B2CFA9
:1018C00050E0B701828193810E94AC15F801848DAC
:1018D00022813381820F932F911D938382832481F0
:1018E00035818217930708F495CF80819181938386
:1018F000828390CF2C813D81232B21F40F900FBE4A
:1019000080E0A3CF811109C08091B50389838091C4
:10191000B3039091B4039B838A830F900FBE0E9400
:101920002E080FB6F8940F92F801858D8F3F09F4B9
:10193000158EF801868D8F3F09F4168E0F900FBE1D
:10194000BE016C5F7F4FCE0101960E94F1078111AD
:101950002AC00FB6F8940F92F801928D838D0F90E4
:101960000FBE98131AC0AC80BD8060912A0370919D
:101970002B03645F7F4FC6010E94040961E0C5012B
:101980000E946409C8010E94C2080E94BB0A81111A
:1019900002C00E94FD0981E02CCFC8010E94C2084C
:1019A0000E94BB0AF8CFC8010E94C2080E94BB0A6D
:1019B000A7CFCF93DF9300D000D01F92CDB7DEB773
:1019C0009C0180916C0390916D030097C9F019827E
:1019D0007B836A833D832C832091A00350E040E009
:1019E000BE016F5F7F4F211120916B030E94E10BBD
:1019F0000F900F900F900F900F90DF91CF9108955F
:101A000080E0F6CFEF92FF920F931F93CF93DF9377
:101A1000E0916003F09161038081811113C0809196
:101A20005E0390915F039093610380936003F09352
:101A30005F03E0935E03DF91CF911F910F91FF90C1
:101A4000EF9008950580F681E02D00811181C68117
:101A5000D7817E0182E0E80EF11CC7010E945F0879
:101A6000E889F989CE0109958A8982FFD1CF8C85D1
:101A70009D85800F911F0817190760F49B838A8347
:101A8000D987C887B70180916003909161030E9454
:101A90000409BECFB801CE010E94D90CB9CFAF92D4
:101AA000BF92CF92DF92EF92FF920F931F93CF934B
:101AB000DF9300D000D01F92CDB7DEB78C016B0151
:101AC0005D834C8380E0580191E1A90EB11C0FB6F3
:101AD000F8940F92F801F28CFF20C9F1448D442351
:101AE000B1F050E086819781840F951F978386839C
:101AF000248135818217930720F08081918197831B
:101B00008683F80166817781C6010E94AC15FA943C
:101B1000F801F28E8085882339F0C80108960E946A
:101B2000830881110E94FD090F900FBE81E00F9084
:101B30000F900F900F900F90DF91CF911F910F9109
:101B4000FF90EF90DF90CF90BF90AF9008952C81E1
:101B50003D81232B21F40F900FBE80E0E8CF81114F
:101B600009C08091B50389838091B3039091B40338
:101B70009B838A830F900FBE0E942E080FB6F894A5
:101B80000F92F801858D8F3F09F4158EF801868D2F
:101B90008F3F09F4168E0F900FBEBE016C5F7F4F12
:101BA000CE0101960E94F107811125C0C8010E9453
:101BB00034088823D1F0EC80FD8060912A03709175
:101BC0002B03645F7F4FC5010E94040961E0C701D8
:101BD0000E946409C8010E94C2080E94BB0A8111C8
:101BE00002C00E94FD0981E072CFC8010E94C208B4
:101BF0000E94BB0AF8CFC8010E94C2080E94BB0A1B
:101C0000C8010E943408882371F3A7CF0F920FB642
:101C1000F8940F921F9211242F923F924F925F924D
:101C20006F927F928F929F92AF92BF92CF92DF92EC
:101C3000EF92FF920F931F932F933F934F935F93D6
:101C40006F937F938F939F93AF93BF93CF93DF93C4
:101C5000EF93FF93A0912A03B0912B030DB60D9241
:101C60000EB60D9213BE80916B038111F6C0809168
:101C7000B3039091B40301969093B4038093B3039C
:101C8000009799F5209170033091710340916E0394
:101C900050916F03509371034093700330936F031F
:101CA00020936E032091B5032F5F2093B503E0913D
:101CB0007003F09171032081211107C02FEF3FEFD6
:101CC00030935B0320935A0310C0E0917003F091AE
:101CD00071030580F681E02D0680F781E02D2281D9
:101CE000338130935B0320935A0320915A03309140
:101CF0005B038217930710F420E09BC020E019E0FB
:101D0000E0917003F09171033081311107C08FEFC2
:101D10009FEF90935B0380935A038BC0E091700315
:101D2000F09171030580F681E02D0680F781E02DAA
:101D3000428153818417950728F450935B034093A5
:101D40005A0377C0AF014E5F5F4FA285B3856481B0
:101D50007581E680F780EB01FD82EC82C681D78138
:101D60007B836A8311966D917C9112974617570772
:101D700021F41296DC93CE931197138612863C9130
:101D800031503C933C91A489B5891097F9F0668550
:101D90007785E088F188EB01FD82EC82C089D189EA
:101DA0007B836A831196ED90FC901297BF01645F6C
:101DB0007F4FE616F70621F41296DC93CE93119727
:101DC000158A148A3C9131503C933C91A6893091FC
:101DD000DA033A1710F4A093DA031A9FD001112402
:101DE000BD016A547C4F7B01DB011196CD91DC91E2
:101DF000D583C4836C817D81778366836C817D818B
:101E0000DB0113965C934E9312975D834C83F386AC
:101E1000E286E70138813F5F3883A0912A03B091C1
:101E20002B03468956963C91431708F469CF21E06D
:101E300067CFE0912A03F0912B03E689D9E0ED9F6B
:101E4000F0011124EA54FC4F8081823008F021E037
:101E50008091580381110EC00AC080915603909161
:101E60005703019690935703809356036AC0222329
:101E700009F467C080916B03882321F081E080938F
:101E800058035FC010925803A0912A03B0912B030E
:101E9000E0912A03F0912B032D913C918789908D3D
:101EA00082179307A8F080912A0390912B038091C9
:101EB0002A0390912B03259A2D9A2FEF67EA71E65A
:101EC000215060407040E1F700C000001D9AF5CF3E
:101ED0002091DA0389E001C02150422F50E0849F15
:101EE000F001859FF00D1124EA54FC4F9081992355
:101EF00099F3A181B28112960D90BC91A02DB2836D
:101F0000A183289FC001112487549C4FA817B907AB
:101F100029F412968D919C919283818389E0849F0C
:101F2000F001859FF00D1124EA54FC4F0180F281ED
:101F3000E02D8681978190932B0380932A03209331
:101F4000DA03A0912A03B0912B03CD91CDBFDD918F
:101F5000DEBFFF91EF91DF91CF91BF91AF919F9144
:101F60008F917F916F915F914F913F912F911F9131
:101F70000F91FF90EF90DF90CF90BF90AF909F9028
:101F80008F907F906F905F904F903F902F901F9019
:101F90000F900FBE0F900895CF93DF93009751F0ED
:101FA000EC010E942E08CE010E94C913DF91CF914F
:101FB0000C94BB0ADF91CF910895CF93DF9300D0AB
:101FC00000D01F92CDB7DEB7E0916003F0916103BE
:101FD000F08010E000E0FF2029F00580F681E02D80
:101FE000008111810E942E080E9424086C018091BA
:101FF0005C0390915D03C816D90608F04BC00E949F
:10200000020DD0925D03C0925C030E94BB0A50E0B7
:1020100040E0BE016F5F7F4F80916C0390916D0334
:102020000E944F0D882381F2898187FDF0CF0C81BA
:102030001D81D8011A968D919C91892B21F0C801A0
:1020400002960E945F080E9424087C0180915C0334
:1020500090915D03E816F90610F40E94020DF092CB
:102060005D03E0925C03E981EA3088F60E2E000CF5
:10207000FF0BE05CFF4ED80152968C910C948C15AE
:10208000C410C410C410FD10E810F710C410C41020
:10209000FD10E810D0925D03C0925C03FF2099F11F
:1020A000C016D106C0F10E94BB0AE0916003F09116
:1020B00061030580F681E02DE680F780C701029676
:1020C0000E945F08D70152968C91529782FF17C0E9
:1020D0001C966D917C91600F711F9801A601C7013C
:1020E0000E943A09882321F0B801C7010E94D90C47
:1020F000D7015096ED91FC91C701099588CF8E7F4D
:10210000F701828BF5CFE0915E03F0915F03808150
:10211000BB24B3948111B12CE0906C03F0906D035B
:102120000FB6F8940F92F701858D8F3F09F4158E45
:10213000D7015E968C915E978F3F11F45E961C924C
:102140000F900FBEF701828D811114C060912A0398
:1021500070912B03645F7F4FC70141960E943F0837
:10216000C8018C199D09BB2011F08FEF9FEF6B2DDB
:102170000E946409C7010E94C2080E94BB0A811123
:1021800046CF0E94FD0943CF8160F801828B2A81EE
:102190003B8164857585620F731FA701C8010E948A
:1021A0003A09882309F433CFD8015096ED91FC9178
:1021B000C8010995F801828982FF29CF6A817B8154
:1021C00084859585680F791FC8010E94D90C1FCF9F
:1021D0008160F801828B6A817B81758764876E0DCF
:1021E0007F1D9701A701C8010E943A0910CF81FD08
:1021F00004C0C8010E94CC0F0ACF8E7FD80152962E
:102200008C9305CFCF93DF93EC010E942E08CE0173
:102210000E942D13EC010E94BB0A209769F4259AB5
:102220002D9A2FEF80E792E0215080409040E1F717
:1022300000C000001D9AF5CFCE01DF91CF91089527
:102240007F928F929F92AF92BF92CF92DF92EF9246
:10225000FF920F931F93CF93DF93982EA92E762E84
:10226000872E7A01B22ECA010E9402116C01892BBD
:1022700009F4D0C088E290E00E940211EC01892BA1
:1022800009F4C5C0D88ECF8AA70165EA70E0C601FF
:102290000E94B51521E0E21AF108EF89F88DEE0DE4
:1022A000FF1D672D782DCE0149969B01285F3F4F7A
:1022B000DB014D91BD01DC014D93CD01AB014150DE
:1022C0005109DA014C91442319F06217730781F721
:1022D00018A2BE8AB9A21AA21B861A861D8A1C8A57
:1022E000D987C88784E090E08B1991099D878C87F6
:1022F000DB8BCA8B1BA21CA21DA21EA21FA2908256
:10230000DF011197AC9211971C92119780E88C9382
:1023100011971C9257971C9211971C92B397F983AF
:10232000E8830115110519F0F801D183C0830FB6B8
:10233000F8940F928091A1038F5F8093A103809105
:102340002A0390912B03892B09F073C0D0932B03A0
:10235000C0932A038091A103813081F586EB93E03D
:102360000E94BF098FEB93E00E94BF0988EC93E0C5
:102370000E94BF0981ED93E00E94BF0986E993E0C6
:102380000E94BF098DE893E00E94BF0984E893E0B2
:102390000E94BF098BE793E00E94BF0982E793E0A8
:1023A0000E94BF0986E993E09093710380937003C4
:1023B0008DE893E090936F0380936E0380919F0369
:1023C0008F5F80939F038E899091DA03981710F4A2
:1023D0008093DA03F9E08F9FC0011124BE016E5F84
:1023E0007F4F8A549C4F0E943F080F900FBE8091F0
:1023F000A003882351F0E0912A03F0912B039689E2
:102400008E89981710F40E94FD0981E004C0C6016E
:102410000E94CC0F8FEFDF91CF911F910F91FF9012
:10242000EF90DF90CF90BF90AF909F908F907F9074
:1024300008958091A0038111C1CFE0912A03F0910A
:102440002B039E898689981708F4B8CFD0932B0365
:10245000C0932A03B3CF0F931F93CF93DF9304E569
:1024600013E020E040EC50E065E073E081E996E0A5
:102470000E942011813009F08CC00FB6F8940F92A1
:1024800080916C0390916D03892B49F589E493E069
:102490000E94BF0980E493E00E94BF0989E493E0B1
:1024A000909361038093600380E493E090935F03D3
:1024B00080935E0381E590E00E940211EC01009799
:1024C00051F04F96998388838AE08B8F85E08C8FBB
:1024D000CE010E94CD09D0936D03C0936C030F9081
:1024E0000FBE80916C0390916D03892B09F451C04C
:1024F00002E513E023E045E550E06AE073E08DED8E
:102500009FE00E942011813009F043C0F8942FEF22
:102510003FEF30935B0320935A038093A003109204
:10252000B4031092B303A89588E190EC0FB6F89429
:10253000A895809360000FBE90936000A0912A033D
:10254000B0912B03CD91CDBFDD91DEBFFF91EF9117
:10255000DF91CF91BF91AF919F918F917F916F91BB
:102560005F914F913F912F911F910F91FF90EF90AD
:10257000DF90CF90BF90AF909F908F907F906F90A3
:102580005F904F903F902F901F900F900FBE0F9035
:102590000895DF91CF911F910F9108950E94060E2B
:1025A0001895789484B5826084BD84B5816084BDBB
:1025B00085B5826085BD85B5816085BD80916E00E1
:1025C000816080936E001092810080918100826012
:1025D000809381008091810081608093810080914F
:1025E00080008160809380008091B100846080933E
:1025F000B1008091B00081608093B00080917A003A
:10260000846080937A0080917A00826080937A005F
:1026100080917A00816080937A0080917A0080684E
:1026200080937A001092C10020910501309106013B
:102630008FEF98E0821B930B90930201809301012E
:102640000E94C4060E942B120E94C406C0E0D0E083
:102650002097F1F30E940000FBCF0F931F93CF93BD
:10266000DF938230910510F482E090E0E091DD0389
:10267000F091DE0330E020E0B0E0A0E0309799F484
:102680002115310509F44AC0281B390B24303105C6
:10269000D8F58A819B816115710589F1FB019383CE
:1026A0008283FE0111C0408151810281138148174C
:1026B0005907E0F04817590799F4109761F01296FE
:1026C0000C93129713961C933296CF01DF91CF9102
:1026D0001F910F9108950093DD031093DE03F4CF53
:1026E0002115310551F04217530738F0A901DB01DC
:1026F0009A01BD01DF01F801C1CFEF01F9CF90933D
:10270000DE038093DD03CDCFFE01E20FF31F819343
:1027100091932250310939832883D7CF2091DB034D
:102720003091DC03232B41F420910301309104010B
:102730003093DC032093DB032091010130910201EF
:102740002115310541F42DB73EB740910501509157
:102750000601241B350BE091DB03F091DC03E2174B
:10276000F307A0F42E1B3F0B2817390778F0AC01B4
:102770004E5F5F4F2417350748F04E0F5F1F509391
:10278000DC034093DB03819391939FCFF0E0E0E083
:102790009CCFCF93DF930097E9F0FC01329713822F
:1027A0001282A091DD03B091DE03ED0130E020E064
:1027B0001097A1F420813181820F931F2091DB03B8
:1027C0003091DC032817390709F061C0F093DC036E
:1027D000E093DB03DF91CF910895EA01CE17DF0785
:1027E000E8F54A815B819E0141155105B1F7E90188
:1027F000FB83EA8349915991C40FD51FEC17FD075C
:1028000061F4808191810296840F951FE90199837B
:102810008883828193819B838A83F0E0E0E0129633
:102820008D919C9113970097B9F52D913C9111973B
:10283000CD010296820F931F2091DB033091DC03C0
:102840002817390739F6309751F51092DE031092A8
:10285000DD03B093DC03A093DB03BCCFD383C2833F
:1028600040815181840F951FC817D90761F44E5FCD
:102870005F4F88819981480F591F518340838A8116
:102880009B81938382832115310509F0B0CFF093AA
:10289000DE03E093DD039ECFFD01DC01C0CF138298
:1028A0001282D7CF0E9466140C9411150E940A154B
:1028B00058F00E94031540F029F45F3F29F00C9472
:1028C000FA1451110C9445150C9400150E94221510
:1028D00068F39923B1F3552391F3951B550BBB274F
:1028E000AA2762177307840738F09F5F5F4F220F94
:1028F000331F441FAA1FA9F335D00E2E3AF0E0E88B
:1029000032D091505040E695001CCAF72BD0FE2FD4
:1029100029D0660F771F881FBB1F26173707480768
:10292000AB07B0E809F0BB0B802DBF01FF27935820
:102930005F4F3AF09E3F510578F00C94FA140C94D6
:1029400045155F3FE4F3983ED4F3869577956795F8
:10295000B795F7959F5FC9F7880F911D9695879555
:1029600097F90895E1E0660F771F881FBB1F621774
:1029700073078407BA0720F0621B730B840BBA0B32
:10298000EE1F88F7E09508950E94CB146894B1116A
:102990000C94451508950E942A1588F09F5798F0C9
:1029A000B92F9927B751B0F0E1F0660F771F881F54
:1029B000991F1AF0BA95C9F714C0B13091F00E946E
:1029C0004415B1E008950C944415672F782F88279B
:1029D000B85F39F0B93FCCF3869577956795B39595
:1029E000D9F73EF490958095709561957F4F8F4F04
:1029F0009F4F089597F99F6780E870E060E0089521
:102A00009FEF80EC089500240A9416161706180606
:102A10000906089500240A941216130614060506E2
:102A20000895092E0394000C11F4882352F0BB0F73
:102A300040F4BF2B11F460FF04C06F5F7F4F8F4FD6
:102A40009F4F089557FD9058440F551F59F05F3F11
:102A500071F04795880F97FB991F61F09F3F79F0C0
:102A600087950895121613061406551FF2CF469542
:102A7000F1DF08C0161617061806991FF1CF8695C4
:102A80007105610508940895E894BB2766277727A8
:102A9000CB0197F90895A1E21A2EAA1BBB1BFD01D9
:102AA0000DC0AA1FBB1FEE1FFF1FA217B307E4072D
:102AB000F50720F0A21BB30BE40BF50B661F771F85
:102AC000881F991F1A9469F7609570958095909565
:102AD0009B01AC01BD01CF010895052E97FB1EF4AB
:102AE00000940E94841557FD07D00E944B1507FCE7
:102AF00003D04EF40C948415509540953095219553
:102B00003F4F4F4F5F4F0895909580957095619519
:102B10007F4F8F4F9F4F0895EE0FFF1F0590F49149
:102B2000E02D09940E949D15A59F900DB49F900DD6
:102B3000A49F800D911D11240895A29FB001B39F01
:102B4000C001A39F700D811D1124911DB29F700DB6
:102B5000811D1124911D0895FB01DC0102C001902B
:102B60000D9241505040D8F70895DC0101C06D939B
:0C2B700041505040E0F70895F894FFCF6A
:102B7C00FF0000DF038000D2010B02D201B80188F4
:102B8C00010B02D201B801880188015D010000002F
:102B9C0000370137015D012601C400E9000601AFD1
:102BAC0000E900DC00AF002601260126014B024B98
:102BBC0002C400E9000601AF00E900C400D201B86C
:102BCC0001B801B801D201D2010000904000001000
:102BDC004000001040000090400000104000001029
:102BEC004000001040000010400000104000009019
:102BFC004000004040000010410000904000009058
:102C0C0040000010400000904000009040000090F8
:102C1C0040000090400000904000009040000040B8
:102C2C004000004040000090400000104000009028
:102C3C004000001040000090400000104000009048
:102C4C0040000090400000904000009040000010B8
:102C5C0040000090400000904000001040000090A8
:102C6C0040000010400000904000001040D2010BCA
:102C7C0002D201B80188010B02D201B80188018887
:102C8C00015D0100000000370137015D01260100E4
:102C9C00000000000026012601260126014B024BF4
:102CAC0002C400E9000601C400C400E900D201B866
:102CBC0001B801B801D201D201C400E9000601C477
:102CCC0000C400E90000009040000010400000101B
:102CDC004000009040000010400000104000001028
:102CEC0040000010400000104000009040000040E8
:102CFC004000001041000090400000904000001087
:102D0C004000009040000010400000903F00001078
:102D1C0040000090400000904000001040000090E7
:102D2C004000001040000090400000104000009057
:102D3C0040000090400000904000001040000090C7
:102D4C0040000090400000904000001040000090B7
:102D5C004000001040000090400000004000009037
:102D6C004000009040000090400000104000009097
:102D7C00400000904049444C4500546D72205376FD
:102D8C006300706C6179696E675F6E6F7465730058
:0A2D9C00506C61794E6F746573008E
:00000001FF
